{
  "contractName": "Land",
  "abi": [
    {
      "inputs": [
        {
          "internalType": "string",
          "name": "_name",
          "type": "string"
        },
        {
          "internalType": "string",
          "name": "_symbol",
          "type": "string"
        },
        {
          "internalType": "uint256",
          "name": "_cost",
          "type": "uint256"
        }
      ],
      "stateMutability": "nonpayable",
      "type": "constructor"
    },
    {
      "anonymous": false,
      "inputs": [
        {
          "indexed": true,
          "internalType": "address",
          "name": "owner",
          "type": "address"
        },
        {
          "indexed": true,
          "internalType": "address",
          "name": "approved",
          "type": "address"
        },
        {
          "indexed": true,
          "internalType": "uint256",
          "name": "tokenId",
          "type": "uint256"
        }
      ],
      "name": "Approval",
      "type": "event"
    },
    {
      "anonymous": false,
      "inputs": [
        {
          "indexed": true,
          "internalType": "address",
          "name": "owner",
          "type": "address"
        },
        {
          "indexed": true,
          "internalType": "address",
          "name": "operator",
          "type": "address"
        },
        {
          "indexed": false,
          "internalType": "bool",
          "name": "approved",
          "type": "bool"
        }
      ],
      "name": "ApprovalForAll",
      "type": "event"
    },
    {
      "anonymous": false,
      "inputs": [
        {
          "indexed": true,
          "internalType": "address",
          "name": "from",
          "type": "address"
        },
        {
          "indexed": true,
          "internalType": "address",
          "name": "to",
          "type": "address"
        },
        {
          "indexed": true,
          "internalType": "uint256",
          "name": "tokenId",
          "type": "uint256"
        }
      ],
      "name": "Transfer",
      "type": "event"
    },
    {
      "inputs": [
        {
          "internalType": "address",
          "name": "to",
          "type": "address"
        },
        {
          "internalType": "uint256",
          "name": "tokenId",
          "type": "uint256"
        }
      ],
      "name": "approve",
      "outputs": [],
      "stateMutability": "nonpayable",
      "type": "function"
    },
    {
      "inputs": [
        {
          "internalType": "address",
          "name": "owner",
          "type": "address"
        }
      ],
      "name": "balanceOf",
      "outputs": [
        {
          "internalType": "uint256",
          "name": "",
          "type": "uint256"
        }
      ],
      "stateMutability": "view",
      "type": "function",
      "constant": true
    },
    {
      "inputs": [
        {
          "internalType": "uint256",
          "name": "",
          "type": "uint256"
        }
      ],
      "name": "buildings",
      "outputs": [
        {
          "internalType": "string",
          "name": "name",
          "type": "string"
        },
        {
          "internalType": "address",
          "name": "owner",
          "type": "address"
        },
        {
          "internalType": "int256",
          "name": "posX",
          "type": "int256"
        },
        {
          "internalType": "int256",
          "name": "posY",
          "type": "int256"
        },
        {
          "internalType": "int256",
          "name": "posZ",
          "type": "int256"
        },
        {
          "internalType": "uint256",
          "name": "sizeX",
          "type": "uint256"
        },
        {
          "internalType": "uint256",
          "name": "sizeY",
          "type": "uint256"
        },
        {
          "internalType": "uint256",
          "name": "sizeZ",
          "type": "uint256"
        }
      ],
      "stateMutability": "view",
      "type": "function",
      "constant": true
    },
    {
      "inputs": [],
      "name": "cost",
      "outputs": [
        {
          "internalType": "uint256",
          "name": "",
          "type": "uint256"
        }
      ],
      "stateMutability": "view",
      "type": "function",
      "constant": true
    },
    {
      "inputs": [
        {
          "internalType": "uint256",
          "name": "tokenId",
          "type": "uint256"
        }
      ],
      "name": "getApproved",
      "outputs": [
        {
          "internalType": "address",
          "name": "",
          "type": "address"
        }
      ],
      "stateMutability": "view",
      "type": "function",
      "constant": true
    },
    {
      "inputs": [
        {
          "internalType": "address",
          "name": "owner",
          "type": "address"
        },
        {
          "internalType": "address",
          "name": "operator",
          "type": "address"
        }
      ],
      "name": "isApprovedForAll",
      "outputs": [
        {
          "internalType": "bool",
          "name": "",
          "type": "bool"
        }
      ],
      "stateMutability": "view",
      "type": "function",
      "constant": true
    },
    {
      "inputs": [],
      "name": "maxSupply",
      "outputs": [
        {
          "internalType": "uint256",
          "name": "",
          "type": "uint256"
        }
      ],
      "stateMutability": "view",
      "type": "function",
      "constant": true
    },
    {
      "inputs": [],
      "name": "name",
      "outputs": [
        {
          "internalType": "string",
          "name": "",
          "type": "string"
        }
      ],
      "stateMutability": "view",
      "type": "function",
      "constant": true
    },
    {
      "inputs": [
        {
          "internalType": "uint256",
          "name": "tokenId",
          "type": "uint256"
        }
      ],
      "name": "ownerOf",
      "outputs": [
        {
          "internalType": "address",
          "name": "",
          "type": "address"
        }
      ],
      "stateMutability": "view",
      "type": "function",
      "constant": true
    },
    {
      "inputs": [
        {
          "internalType": "address",
          "name": "operator",
          "type": "address"
        },
        {
          "internalType": "bool",
          "name": "approved",
          "type": "bool"
        }
      ],
      "name": "setApprovalForAll",
      "outputs": [],
      "stateMutability": "nonpayable",
      "type": "function"
    },
    {
      "inputs": [
        {
          "internalType": "bytes4",
          "name": "interfaceId",
          "type": "bytes4"
        }
      ],
      "name": "supportsInterface",
      "outputs": [
        {
          "internalType": "bool",
          "name": "",
          "type": "bool"
        }
      ],
      "stateMutability": "view",
      "type": "function",
      "constant": true
    },
    {
      "inputs": [],
      "name": "symbol",
      "outputs": [
        {
          "internalType": "string",
          "name": "",
          "type": "string"
        }
      ],
      "stateMutability": "view",
      "type": "function",
      "constant": true
    },
    {
      "inputs": [
        {
          "internalType": "uint256",
          "name": "tokenId",
          "type": "uint256"
        }
      ],
      "name": "tokenURI",
      "outputs": [
        {
          "internalType": "string",
          "name": "",
          "type": "string"
        }
      ],
      "stateMutability": "view",
      "type": "function",
      "constant": true
    },
    {
      "inputs": [],
      "name": "totalSupply",
      "outputs": [
        {
          "internalType": "uint256",
          "name": "",
          "type": "uint256"
        }
      ],
      "stateMutability": "view",
      "type": "function",
      "constant": true
    },
    {
      "inputs": [
        {
          "internalType": "uint256",
          "name": "_id",
          "type": "uint256"
        }
      ],
      "name": "mint",
      "outputs": [],
      "stateMutability": "payable",
      "type": "function",
      "payable": true
    },
    {
      "inputs": [
        {
          "internalType": "address",
          "name": "from",
          "type": "address"
        },
        {
          "internalType": "address",
          "name": "to",
          "type": "address"
        },
        {
          "internalType": "uint256",
          "name": "tokenId",
          "type": "uint256"
        }
      ],
      "name": "transferFrom",
      "outputs": [],
      "stateMutability": "nonpayable",
      "type": "function"
    },
    {
      "inputs": [
        {
          "internalType": "address",
          "name": "from",
          "type": "address"
        },
        {
          "internalType": "address",
          "name": "to",
          "type": "address"
        },
        {
          "internalType": "uint256",
          "name": "tokenId",
          "type": "uint256"
        }
      ],
      "name": "safeTransferFrom",
      "outputs": [],
      "stateMutability": "nonpayable",
      "type": "function"
    },
    {
      "inputs": [
        {
          "internalType": "address",
          "name": "from",
          "type": "address"
        },
        {
          "internalType": "address",
          "name": "to",
          "type": "address"
        },
        {
          "internalType": "uint256",
          "name": "tokenId",
          "type": "uint256"
        },
        {
          "internalType": "bytes",
          "name": "_data",
          "type": "bytes"
        }
      ],
      "name": "safeTransferFrom",
      "outputs": [],
      "stateMutability": "nonpayable",
      "type": "function"
    },
    {
      "inputs": [],
      "name": "getBuildings",
      "outputs": [
        {
          "components": [
            {
              "internalType": "string",
              "name": "name",
              "type": "string"
            },
            {
              "internalType": "address",
              "name": "owner",
              "type": "address"
            },
            {
              "internalType": "int256",
              "name": "posX",
              "type": "int256"
            },
            {
              "internalType": "int256",
              "name": "posY",
              "type": "int256"
            },
            {
              "internalType": "int256",
              "name": "posZ",
              "type": "int256"
            },
            {
              "internalType": "uint256",
              "name": "sizeX",
              "type": "uint256"
            },
            {
              "internalType": "uint256",
              "name": "sizeY",
              "type": "uint256"
            },
            {
              "internalType": "uint256",
              "name": "sizeZ",
              "type": "uint256"
            }
          ],
          "internalType": "struct Land.Building[]",
          "name": "",
          "type": "tuple[]"
        }
      ],
      "stateMutability": "view",
      "type": "function",
      "constant": true
    },
    {
      "inputs": [
        {
          "internalType": "uint256",
          "name": "_id",
          "type": "uint256"
        }
      ],
      "name": "getBuilding",
      "outputs": [
        {
          "components": [
            {
              "internalType": "string",
              "name": "name",
              "type": "string"
            },
            {
              "internalType": "address",
              "name": "owner",
              "type": "address"
            },
            {
              "internalType": "int256",
              "name": "posX",
              "type": "int256"
            },
            {
              "internalType": "int256",
              "name": "posY",
              "type": "int256"
            },
            {
              "internalType": "int256",
              "name": "posZ",
              "type": "int256"
            },
            {
              "internalType": "uint256",
              "name": "sizeX",
              "type": "uint256"
            },
            {
              "internalType": "uint256",
              "name": "sizeY",
              "type": "uint256"
            },
            {
              "internalType": "uint256",
              "name": "sizeZ",
              "type": "uint256"
            }
          ],
          "internalType": "struct Land.Building",
          "name": "",
          "type": "tuple"
        }
      ],
      "stateMutability": "view",
      "type": "function",
      "constant": true
    }
  ],
  "bytecode": "0x6080604052670de0b6b3a7640000600655600560075560006008553480156200002757600080fd5b5060405162003fbe38038062003fbe83398181016040528101906200004d919062000935565b8282816000908162000060919062000c10565b50806001908162000072919062000c10565b5050508060068190555060096040518061010001604052806040518060400160405280600981526020017f436974792048616c6c00000000000000000000000000000000000000000000008152508152602001600073ffffffffffffffffffffffffffffffffffffffff168152602001600081526020016000815260200160008152602001600a8152602001600a8152602001600a815250908060018154018082558091505060019003906000526020600020906008020160009091909190915060008201518160000190816200014a919062000c10565b5060208201518160010160006101000a81548173ffffffffffffffffffffffffffffffffffffffff021916908373ffffffffffffffffffffffffffffffffffffffff16021790555060408201518160020155606082015181600301556080820151816004015560a0820151816005015560c0820151816006015560e08201518160070155505060096040518061010001604052806040518060400160405280600781526020017f5374616469756d000000000000000000000000000000000000000000000000008152508152602001600073ffffffffffffffffffffffffffffffffffffffff16815260200160008152602001600a815260200160008152602001600a8152602001600581526020016003815250908060018154018082558091505060019003906000526020600020906008020160009091909190915060008201518160000190816200029e919062000c10565b5060208201518160010160006101000a81548173ffffffffffffffffffffffffffffffffffffffff021916908373ffffffffffffffffffffffffffffffffffffffff16021790555060408201518160020155606082015181600301556080820151816004015560a0820151816005015560c0820151816006015560e08201518160070155505060096040518061010001604052806040518060400160405280600a81526020017f556e6976657273697479000000000000000000000000000000000000000000008152508152602001600073ffffffffffffffffffffffffffffffffffffffff168152602001600081526020017ffffffffffffffffffffffffffffffffffffffffffffffffffffffffffffffff6815260200160008152602001600a81526020016005815260200160038152509080600181540180825580915050600190039060005260206000209060080201600090919091909150600082015181600001908162000411919062000c10565b5060208201518160010160006101000a81548173ffffffffffffffffffffffffffffffffffffffff021916908373ffffffffffffffffffffffffffffffffffffffff16021790555060408201518160020155606082015181600301556080820151816004015560a0820151816005015560c0820151816006015560e08201518160070155505060096040518061010001604052806040518060400160405280601081526020017f53686f7070696e6720506c617a652031000000000000000000000000000000008152508152602001600073ffffffffffffffffffffffffffffffffffffffff168152602001600a81526020016000815260200160008152602001600581526020016019815260200160058152509080600181540180825580915050600190039060005260206000209060080201600090919091909150600082015181600001908162000565919062000c10565b5060208201518160010160006101000a81548173ffffffffffffffffffffffffffffffffffffffff021916908373ffffffffffffffffffffffffffffffffffffffff16021790555060408201518160020155606082015181600301556080820151816004015560a0820151816005015560c0820151816006015560e08201518160070155505060096040518061010001604052806040518060400160405280601081526020017f53686f7070696e6720506c617a612032000000000000000000000000000000008152508152602001600073ffffffffffffffffffffffffffffffffffffffff1681526020017ffffffffffffffffffffffffffffffffffffffffffffffffffffffffffffffff6815260200160008152602001600081526020016005815260200160198152602001600581525090806001815401808255809150506001900390600052602060002090600802016000909190919091506000820151816000019081620006d8919062000c10565b5060208201518160010160006101000a81548173ffffffffffffffffffffffffffffffffffffffff021916908373ffffffffffffffffffffffffffffffffffffffff16021790555060408201518160020155606082015181600301556080820151816004015560a0820151816005015560c0820151816006015560e08201518160070155505050505062000cf7565b6000604051905090565b600080fd5b600080fd5b600080fd5b600080fd5b6000601f19601f8301169050919050565b7f4e487b7100000000000000000000000000000000000000000000000000000000600052604160045260246000fd5b620007d08262000785565b810181811067ffffffffffffffff82111715620007f257620007f162000796565b5b80604052505050565b60006200080762000767565b9050620008158282620007c5565b919050565b600067ffffffffffffffff82111562000838576200083762000796565b5b620008438262000785565b9050602081019050919050565b60005b838110156200087057808201518184015260208101905062000853565b60008484015250505050565b6000620008936200088d846200081a565b620007fb565b905082815260208101848484011115620008b257620008b162000780565b5b620008bf84828562000850565b509392505050565b600082601f830112620008df57620008de6200077b565b5b8151620008f18482602086016200087c565b91505092915050565b6000819050919050565b6200090f81620008fa565b81146200091b57600080fd5b50565b6000815190506200092f8162000904565b92915050565b60008060006060848603121562000951576200095062000771565b5b600084015167ffffffffffffffff81111562000972576200097162000776565b5b6200098086828701620008c7565b935050602084015167ffffffffffffffff811115620009a457620009a362000776565b5b620009b286828701620008c7565b9250506040620009c5868287016200091e565b9150509250925092565b600081519050919050565b7f4e487b7100000000000000000000000000000000000000000000000000000000600052602260045260246000fd5b6000600282049050600182168062000a2257607f821691505b60208210810362000a385762000a37620009da565b5b50919050565b60008190508160005260206000209050919050565b60006020601f8301049050919050565b600082821b905092915050565b60006008830262000aa27fffffffffffffffffffffffffffffffffffffffffffffffffffffffffffffffff8262000a63565b62000aae868362000a63565b95508019841693508086168417925050509392505050565b6000819050919050565b600062000af162000aeb62000ae584620008fa565b62000ac6565b620008fa565b9050919050565b6000819050919050565b62000b0d8362000ad0565b62000b2562000b1c8262000af8565b84845462000a70565b825550505050565b600090565b62000b3c62000b2d565b62000b4981848462000b02565b505050565b5b8181101562000b715762000b6560008262000b32565b60018101905062000b4f565b5050565b601f82111562000bc05762000b8a8162000a3e565b62000b958462000a53565b8101602085101562000ba5578190505b62000bbd62000bb48562000a53565b83018262000b4e565b50505b505050565b600082821c905092915050565b600062000be56000198460080262000bc5565b1980831691505092915050565b600062000c00838362000bd2565b9150826002028217905092915050565b62000c1b82620009cf565b67ffffffffffffffff81111562000c375762000c3662000796565b5b62000c43825462000a09565b62000c5082828562000b75565b600060209050601f83116001811462000c88576000841562000c73578287015190505b62000c7f858262000bf2565b86555062000cef565b601f19841662000c988662000a3e565b60005b8281101562000cc25784890151825560018201915060208501945060208101905062000c9b565b8683101562000ce2578489015162000cde601f89168262000bd2565b8355505b6001600288020188555050505b505050505050565b6132b78062000d076000396000f3fe60806040526004361061011f5760003560e01c806370a08231116100a0578063b88d4fde11610064578063b88d4fde14610405578063c87b56dd1461042e578063d5abeb011461046b578063d9cf6a2614610496578063e985e9c5146104c15761011f565b806370a082311461031b57806395d89b41146103585780639dfd8b0214610383578063a0712d68146103c0578063a22cb465146103dc5761011f565b806318160ddd116100e757806318160ddd1461021d57806323b872dd1461024857806342842e0e146102715780634c96a0621461029a5780636352211e146102de5761011f565b806301ffc9a71461012457806306fdde0314610161578063081812fc1461018c578063095ea7b3146101c957806313faede6146101f2575b600080fd5b34801561013057600080fd5b5061014b60048036038101906101469190612172565b6104fe565b60405161015891906121ba565b60405180910390f35b34801561016d57600080fd5b506101766105e0565b6040516101839190612265565b60405180910390f35b34801561019857600080fd5b506101b360048036038101906101ae91906122bd565b610672565b6040516101c0919061232b565b60405180910390f35b3480156101d557600080fd5b506101f060048036038101906101eb9190612372565b6106b8565b005b3480156101fe57600080fd5b506102076107cf565b60405161021491906123c1565b60405180910390f35b34801561022957600080fd5b506102326107d5565b60405161023f91906123c1565b60405180910390f35b34801561025457600080fd5b5061026f600480360381019061026a91906123dc565b6107db565b005b34801561027d57600080fd5b50610298600480360381019061029391906123dc565b6108ab565b005b3480156102a657600080fd5b506102c160048036038101906102bc91906122bd565b6108cb565b6040516102d5989796959493929190612448565b60405180910390f35b3480156102ea57600080fd5b50610305600480360381019061030091906122bd565b6109cb565b604051610312919061232b565b60405180910390f35b34801561032757600080fd5b50610342600480360381019061033d91906124cd565b610a51565b60405161034f91906123c1565b60405180910390f35b34801561036457600080fd5b5061036d610b08565b60405161037a9190612265565b60405180910390f35b34801561038f57600080fd5b506103aa60048036038101906103a591906122bd565b610b9a565b6040516103b79190612621565b60405180910390f35b6103da60048036038101906103d591906122bd565b610d07565b005b3480156103e857600080fd5b5061040360048036038101906103fe919061266f565b610e4f565b005b34801561041157600080fd5b5061042c600480360381019061042791906127e4565b610e65565b005b34801561043a57600080fd5b50610455600480360381019061045091906122bd565b610f37565b6040516104629190612265565b60405180910390f35b34801561047757600080fd5b50610480610f9f565b60405161048d91906123c1565b60405180910390f35b3480156104a257600080fd5b506104ab610fa5565b6040516104b891906129d9565b60405180910390f35b3480156104cd57600080fd5b506104e860048036038101906104e391906129fb565b611129565b6040516104f591906121ba565b60405180910390f35b60007f80ac58cd000000000000000000000000000000000000000000000000000000007bffffffffffffffffffffffffffffffffffffffffffffffffffffffff1916827bffffffffffffffffffffffffffffffffffffffffffffffffffffffff191614806105c957507f5b5e139f000000000000000000000000000000000000000000000000000000007bffffffffffffffffffffffffffffffffffffffffffffffffffffffff1916827bffffffffffffffffffffffffffffffffffffffffffffffffffffffff1916145b806105d957506105d8826111bd565b5b9050919050565b6060600080546105ef90612a6a565b80601f016020809104026020016040519081016040528092919081815260200182805461061b90612a6a565b80156106685780601f1061063d57610100808354040283529160200191610668565b820191906000526020600020905b81548152906001019060200180831161064b57829003601f168201915b5050505050905090565b600061067d82611227565b6004600083815260200190815260200160002060009054906101000a900473ffffffffffffffffffffffffffffffffffffffff169050919050565b60006106c3826109cb565b90508073ffffffffffffffffffffffffffffffffffffffff168373ffffffffffffffffffffffffffffffffffffffff1603610733576040517f08c379a000000000000000000000000000000000000000000000000000000000815260040161072a90612b0d565b60405180910390fd5b8073ffffffffffffffffffffffffffffffffffffffff16610752611272565b73ffffffffffffffffffffffffffffffffffffffff16148061078157506107808161077b611272565b611129565b5b6107c0576040517f08c379a00000000000000000000000000000000000000000000000000000000081526004016107b790612b9f565b60405180910390fd5b6107ca838361127a565b505050565b60065481565b60085481565b6107ec6107e6611272565b82611333565b61082b576040517f08c379a000000000000000000000000000000000000000000000000000000000815260040161082290612c31565b60405180910390fd5b81600960018361083b9190612c80565b8154811061084c5761084b612cb4565b5b906000526020600020906008020160010160006101000a81548173ffffffffffffffffffffffffffffffffffffffff021916908373ffffffffffffffffffffffffffffffffffffffff1602179055506108a68383836113c8565b505050565b6108c683838360405180602001604052806000815250610e65565b505050565b600981815481106108db57600080fd5b90600052602060002090600802016000915090508060000180546108fe90612a6a565b80601f016020809104026020016040519081016040528092919081815260200182805461092a90612a6a565b80156109775780601f1061094c57610100808354040283529160200191610977565b820191906000526020600020905b81548152906001019060200180831161095a57829003601f168201915b5050505050908060010160009054906101000a900473ffffffffffffffffffffffffffffffffffffffff16908060020154908060030154908060040154908060050154908060060154908060070154905088565b6000806109d7836116c1565b9050600073ffffffffffffffffffffffffffffffffffffffff168173ffffffffffffffffffffffffffffffffffffffff1603610a48576040517f08c379a0000000000000000000000000000000000000000000000000000000008152600401610a3f90612d2f565b60405180910390fd5b80915050919050565b60008073ffffffffffffffffffffffffffffffffffffffff168273ffffffffffffffffffffffffffffffffffffffff1603610ac1576040517f08c379a0000000000000000000000000000000000000000000000000000000008152600401610ab890612dc1565b60405180910390fd5b600360008373ffffffffffffffffffffffffffffffffffffffff1673ffffffffffffffffffffffffffffffffffffffff168152602001908152602001600020549050919050565b606060018054610b1790612a6a565b80601f0160208091040260200160405190810160405280929190818152602001828054610b4390612a6a565b8015610b905780601f10610b6557610100808354040283529160200191610b90565b820191906000526020600020905b815481529060010190602001808311610b7357829003601f168201915b5050505050905090565b610ba26120ab565b6009600183610bb19190612c80565b81548110610bc257610bc1612cb4565b5b906000526020600020906008020160405180610100016040529081600082018054610bec90612a6a565b80601f0160208091040260200160405190810160405280929190818152602001828054610c1890612a6a565b8015610c655780601f10610c3a57610100808354040283529160200191610c65565b820191906000526020600020905b815481529060010190602001808311610c4857829003601f168201915b505050505081526020016001820160009054906101000a900473ffffffffffffffffffffffffffffffffffffffff1673ffffffffffffffffffffffffffffffffffffffff1673ffffffffffffffffffffffffffffffffffffffff16815260200160028201548152602001600382015481526020016004820154815260200160058201548152602001600682015481526020016007820154815250509050919050565b60006008549050600754811115610d1d57600080fd5b600073ffffffffffffffffffffffffffffffffffffffff166009600184610d449190612c80565b81548110610d5557610d54612cb4565b5b906000526020600020906008020160010160009054906101000a900473ffffffffffffffffffffffffffffffffffffffff1673ffffffffffffffffffffffffffffffffffffffff1614610da757600080fd5b670de0b6b3a7640000341015610dbc57600080fd5b336009600184610dcc9190612c80565b81548110610ddd57610ddc612cb4565b5b906000526020600020906008020160010160006101000a81548173ffffffffffffffffffffffffffffffffffffffff021916908373ffffffffffffffffffffffffffffffffffffffff1602179055506001600854610e3b9190612de1565b600881905550610e4b33836116fe565b5050565b610e61610e5a611272565b838361171c565b5050565b610e76610e70611272565b83611333565b610eb5576040517f08c379a0000000000000000000000000000000000000000000000000000000008152600401610eac90612c31565b60405180910390fd5b826009600184610ec59190612c80565b81548110610ed657610ed5612cb4565b5b906000526020600020906008020160010160006101000a81548173ffffffffffffffffffffffffffffffffffffffff021916908373ffffffffffffffffffffffffffffffffffffffff160217905550610f3184848484611888565b50505050565b6060610f4282611227565b6000610f4c6118e4565b90506000815111610f6c5760405180602001604052806000815250610f97565b80610f76846118fb565b604051602001610f87929190612e51565b6040516020818303038152906040525b915050919050565b60075481565b60606009805480602002602001604051908101604052809291908181526020016000905b82821015611120578382906000526020600020906008020160405180610100016040529081600082018054610ffd90612a6a565b80601f016020809104026020016040519081016040528092919081815260200182805461102990612a6a565b80156110765780601f1061104b57610100808354040283529160200191611076565b820191906000526020600020905b81548152906001019060200180831161105957829003601f168201915b505050505081526020016001820160009054906101000a900473ffffffffffffffffffffffffffffffffffffffff1673ffffffffffffffffffffffffffffffffffffffff1673ffffffffffffffffffffffffffffffffffffffff168152602001600282015481526020016003820154815260200160048201548152602001600582015481526020016006820154815260200160078201548152505081526020019060010190610fc9565b50505050905090565b6000600560008473ffffffffffffffffffffffffffffffffffffffff1673ffffffffffffffffffffffffffffffffffffffff16815260200190815260200160002060008373ffffffffffffffffffffffffffffffffffffffff1673ffffffffffffffffffffffffffffffffffffffff16815260200190815260200160002060009054906101000a900460ff16905092915050565b60007f01ffc9a7000000000000000000000000000000000000000000000000000000007bffffffffffffffffffffffffffffffffffffffffffffffffffffffff1916827bffffffffffffffffffffffffffffffffffffffffffffffffffffffff1916149050919050565b611230816119c9565b61126f576040517f08c379a000000000000000000000000000000000000000000000000000000000815260040161126690612d2f565b60405180910390fd5b50565b600033905090565b816004600083815260200190815260200160002060006101000a81548173ffffffffffffffffffffffffffffffffffffffff021916908373ffffffffffffffffffffffffffffffffffffffff160217905550808273ffffffffffffffffffffffffffffffffffffffff166112ed836109cb565b73ffffffffffffffffffffffffffffffffffffffff167f8c5be1e5ebec7d5bd14f71427d1e84f3dd0314c0f7b2291e5b200ac8c7c3b92560405160405180910390a45050565b60008061133f836109cb565b90508073ffffffffffffffffffffffffffffffffffffffff168473ffffffffffffffffffffffffffffffffffffffff16148061138157506113808185611129565b5b806113bf57508373ffffffffffffffffffffffffffffffffffffffff166113a784610672565b73ffffffffffffffffffffffffffffffffffffffff16145b91505092915050565b8273ffffffffffffffffffffffffffffffffffffffff166113e8826109cb565b73ffffffffffffffffffffffffffffffffffffffff161461143e576040517f08c379a000000000000000000000000000000000000000000000000000000000815260040161143590612ee7565b60405180910390fd5b600073ffffffffffffffffffffffffffffffffffffffff168273ffffffffffffffffffffffffffffffffffffffff16036114ad576040517f08c379a00000000000000000000000000000000000000000000000000000000081526004016114a490612f79565b60405180910390fd5b6114ba8383836001611a0a565b8273ffffffffffffffffffffffffffffffffffffffff166114da826109cb565b73ffffffffffffffffffffffffffffffffffffffff1614611530576040517f08c379a000000000000000000000000000000000000000000000000000000000815260040161152790612ee7565b60405180910390fd5b6004600082815260200190815260200160002060006101000a81549073ffffffffffffffffffffffffffffffffffffffff02191690556001600360008573ffffffffffffffffffffffffffffffffffffffff1673ffffffffffffffffffffffffffffffffffffffff168152602001908152602001600020600082825403925050819055506001600360008473ffffffffffffffffffffffffffffffffffffffff1673ffffffffffffffffffffffffffffffffffffffff16815260200190815260200160002060008282540192505081905550816002600083815260200190815260200160002060006101000a81548173ffffffffffffffffffffffffffffffffffffffff021916908373ffffffffffffffffffffffffffffffffffffffff160217905550808273ffffffffffffffffffffffffffffffffffffffff168473ffffffffffffffffffffffffffffffffffffffff167fddf252ad1be2c89b69c2b068fc378daa952ba7f163c4a11628f55a4df523b3ef60405160405180910390a46116bc8383836001611b30565b505050565b60006002600083815260200190815260200160002060009054906101000a900473ffffffffffffffffffffffffffffffffffffffff169050919050565b611718828260405180602001604052806000815250611b36565b5050565b8173ffffffffffffffffffffffffffffffffffffffff168373ffffffffffffffffffffffffffffffffffffffff160361178a576040517f08c379a000000000000000000000000000000000000000000000000000000000815260040161178190612fe5565b60405180910390fd5b80600560008573ffffffffffffffffffffffffffffffffffffffff1673ffffffffffffffffffffffffffffffffffffffff16815260200190815260200160002060008473ffffffffffffffffffffffffffffffffffffffff1673ffffffffffffffffffffffffffffffffffffffff16815260200190815260200160002060006101000a81548160ff0219169083151502179055508173ffffffffffffffffffffffffffffffffffffffff168373ffffffffffffffffffffffffffffffffffffffff167f17307eab39ab6107e8899845ad3d59bd9653f200f220920489ca2b5937696c318360405161187b91906121ba565b60405180910390a3505050565b6118938484846113c8565b61189f84848484611b91565b6118de576040517f08c379a00000000000000000000000000000000000000000000000000000000081526004016118d590613077565b60405180910390fd5b50505050565b606060405180602001604052806000815250905090565b60606000600161190a84611d18565b01905060008167ffffffffffffffff811115611929576119286126b9565b5b6040519080825280601f01601f19166020018201604052801561195b5781602001600182028036833780820191505090505b509050600082602001820190505b6001156119be578080600190039150507f3031323334353637383961626364656600000000000000000000000000000000600a86061a8153600a85816119b2576119b1613097565b5b04945060008503611969575b819350505050919050565b60008073ffffffffffffffffffffffffffffffffffffffff166119eb836116c1565b73ffffffffffffffffffffffffffffffffffffffff1614159050919050565b6001811115611b2a57600073ffffffffffffffffffffffffffffffffffffffff168473ffffffffffffffffffffffffffffffffffffffff1614611a9e5780600360008673ffffffffffffffffffffffffffffffffffffffff1673ffffffffffffffffffffffffffffffffffffffff1681526020019081526020016000206000828254611a969190612c80565b925050819055505b600073ffffffffffffffffffffffffffffffffffffffff168373ffffffffffffffffffffffffffffffffffffffff1614611b295780600360008573ffffffffffffffffffffffffffffffffffffffff1673ffffffffffffffffffffffffffffffffffffffff1681526020019081526020016000206000828254611b219190612de1565b925050819055505b5b50505050565b50505050565b611b408383611e6b565b611b4d6000848484611b91565b611b8c576040517f08c379a0000000000000000000000000000000000000000000000000000000008152600401611b8390613077565b60405180910390fd5b505050565b6000611bb28473ffffffffffffffffffffffffffffffffffffffff16612088565b15611d0b578373ffffffffffffffffffffffffffffffffffffffff1663150b7a02611bdb611272565b8786866040518563ffffffff1660e01b8152600401611bfd949392919061311b565b6020604051808303816000875af1925050508015611c3957506040513d601f19601f82011682018060405250810190611c36919061317c565b60015b611cbb573d8060008114611c69576040519150601f19603f3d011682016040523d82523d6000602084013e611c6e565b606091505b506000815103611cb3576040517f08c379a0000000000000000000000000000000000000000000000000000000008152600401611caa90613077565b60405180910390fd5b805181602001fd5b63150b7a0260e01b7bffffffffffffffffffffffffffffffffffffffffffffffffffffffff1916817bffffffffffffffffffffffffffffffffffffffffffffffffffffffff191614915050611d10565b600190505b949350505050565b600080600090507a184f03e93ff9f4daa797ed6e38ed64bf6a1f0100000000000000008310611d76577a184f03e93ff9f4daa797ed6e38ed64bf6a1f0100000000000000008381611d6c57611d6b613097565b5b0492506040810190505b6d04ee2d6d415b85acef81000000008310611db3576d04ee2d6d415b85acef81000000008381611da957611da8613097565b5b0492506020810190505b662386f26fc100008310611de257662386f26fc100008381611dd857611dd7613097565b5b0492506010810190505b6305f5e1008310611e0b576305f5e1008381611e0157611e00613097565b5b0492506008810190505b6127108310611e30576127108381611e2657611e25613097565b5b0492506004810190505b60648310611e535760648381611e4957611e48613097565b5b0492506002810190505b600a8310611e62576001810190505b80915050919050565b600073ffffffffffffffffffffffffffffffffffffffff168273ffffffffffffffffffffffffffffffffffffffff1603611eda576040517f08c379a0000000000000000000000000000000000000000000000000000000008152600401611ed1906131f5565b60405180910390fd5b611ee3816119c9565b15611f23576040517f08c379a0000000000000000000000000000000000000000000000000000000008152600401611f1a90613261565b60405180910390fd5b611f31600083836001611a0a565b611f3a816119c9565b15611f7a576040517f08c379a0000000000000000000000000000000000000000000000000000000008152600401611f7190613261565b60405180910390fd5b6001600360008473ffffffffffffffffffffffffffffffffffffffff1673ffffffffffffffffffffffffffffffffffffffff16815260200190815260200160002060008282540192505081905550816002600083815260200190815260200160002060006101000a81548173ffffffffffffffffffffffffffffffffffffffff021916908373ffffffffffffffffffffffffffffffffffffffff160217905550808273ffffffffffffffffffffffffffffffffffffffff16600073ffffffffffffffffffffffffffffffffffffffff167fddf252ad1be2c89b69c2b068fc378daa952ba7f163c4a11628f55a4df523b3ef60405160405180910390a4612084600083836001611b30565b5050565b6000808273ffffffffffffffffffffffffffffffffffffffff163b119050919050565b60405180610100016040528060608152602001600073ffffffffffffffffffffffffffffffffffffffff1681526020016000815260200160008152602001600081526020016000815260200160008152602001600081525090565b6000604051905090565b600080fd5b600080fd5b60007fffffffff0000000000000000000000000000000000000000000000000000000082169050919050565b61214f8161211a565b811461215a57600080fd5b50565b60008135905061216c81612146565b92915050565b60006020828403121561218857612187612110565b5b60006121968482850161215d565b91505092915050565b60008115159050919050565b6121b48161219f565b82525050565b60006020820190506121cf60008301846121ab565b92915050565b600081519050919050565b600082825260208201905092915050565b60005b8381101561220f5780820151818401526020810190506121f4565b60008484015250505050565b6000601f19601f8301169050919050565b6000612237826121d5565b61224181856121e0565b93506122518185602086016121f1565b61225a8161221b565b840191505092915050565b6000602082019050818103600083015261227f818461222c565b905092915050565b6000819050919050565b61229a81612287565b81146122a557600080fd5b50565b6000813590506122b781612291565b92915050565b6000602082840312156122d3576122d2612110565b5b60006122e1848285016122a8565b91505092915050565b600073ffffffffffffffffffffffffffffffffffffffff82169050919050565b6000612315826122ea565b9050919050565b6123258161230a565b82525050565b6000602082019050612340600083018461231c565b92915050565b61234f8161230a565b811461235a57600080fd5b50565b60008135905061236c81612346565b92915050565b6000806040838503121561238957612388612110565b5b60006123978582860161235d565b92505060206123a8858286016122a8565b9150509250929050565b6123bb81612287565b82525050565b60006020820190506123d660008301846123b2565b92915050565b6000806000606084860312156123f5576123f4612110565b5b60006124038682870161235d565b93505060206124148682870161235d565b9250506040612425868287016122a8565b9150509250925092565b6000819050919050565b6124428161242f565b82525050565b6000610100820190508181036000830152612463818b61222c565b9050612472602083018a61231c565b61247f6040830189612439565b61248c6060830188612439565b6124996080830187612439565b6124a660a08301866123b2565b6124b360c08301856123b2565b6124c060e08301846123b2565b9998505050505050505050565b6000602082840312156124e3576124e2612110565b5b60006124f18482850161235d565b91505092915050565b600082825260208201905092915050565b6000612516826121d5565b61252081856124fa565b93506125308185602086016121f1565b6125398161221b565b840191505092915050565b61254d8161230a565b82525050565b61255c8161242f565b82525050565b61256b81612287565b82525050565b600061010083016000830151848203600086015261258f828261250b565b91505060208301516125a46020860182612544565b5060408301516125b76040860182612553565b5060608301516125ca6060860182612553565b5060808301516125dd6080860182612553565b5060a08301516125f060a0860182612562565b5060c083015161260360c0860182612562565b5060e083015161261660e0860182612562565b508091505092915050565b6000602082019050818103600083015261263b8184612571565b905092915050565b61264c8161219f565b811461265757600080fd5b50565b60008135905061266981612643565b92915050565b6000806040838503121561268657612685612110565b5b60006126948582860161235d565b92505060206126a58582860161265a565b9150509250929050565b600080fd5b600080fd5b7f4e487b7100000000000000000000000000000000000000000000000000000000600052604160045260246000fd5b6126f18261221b565b810181811067ffffffffffffffff821117156127105761270f6126b9565b5b80604052505050565b6000612723612106565b905061272f82826126e8565b919050565b600067ffffffffffffffff82111561274f5761274e6126b9565b5b6127588261221b565b9050602081019050919050565b82818337600083830152505050565b600061278761278284612734565b612719565b9050828152602081018484840111156127a3576127a26126b4565b5b6127ae848285612765565b509392505050565b600082601f8301126127cb576127ca6126af565b5b81356127db848260208601612774565b91505092915050565b600080600080608085870312156127fe576127fd612110565b5b600061280c8782880161235d565b945050602061281d8782880161235d565b935050604061282e878288016122a8565b925050606085013567ffffffffffffffff81111561284f5761284e612115565b5b61285b878288016127b6565b91505092959194509250565b600081519050919050565b600082825260208201905092915050565b6000819050602082019050919050565b60006101008301600083015184820360008601526128b1828261250b565b91505060208301516128c66020860182612544565b5060408301516128d96040860182612553565b5060608301516128ec6060860182612553565b5060808301516128ff6080860182612553565b5060a083015161291260a0860182612562565b5060c083015161292560c0860182612562565b5060e083015161293860e0860182612562565b508091505092915050565b600061294f8383612893565b905092915050565b6000602082019050919050565b600061296f82612867565b6129798185612872565b93508360208202850161298b85612883565b8060005b858110156129c757848403895281516129a88582612943565b94506129b383612957565b925060208a0199505060018101905061298f565b50829750879550505050505092915050565b600060208201905081810360008301526129f38184612964565b905092915050565b60008060408385031215612a1257612a11612110565b5b6000612a208582860161235d565b9250506020612a318582860161235d565b9150509250929050565b7f4e487b7100000000000000000000000000000000000000000000000000000000600052602260045260246000fd5b60006002820490506001821680612a8257607f821691505b602082108103612a9557612a94612a3b565b5b50919050565b7f4552433732313a20617070726f76616c20746f2063757272656e74206f776e6560008201527f7200000000000000000000000000000000000000000000000000000000000000602082015250565b6000612af76021836121e0565b9150612b0282612a9b565b604082019050919050565b60006020820190508181036000830152612b2681612aea565b9050919050565b7f4552433732313a20617070726f76652063616c6c6572206973206e6f7420746f60008201527f6b656e206f776e6572206f7220617070726f76656420666f7220616c6c000000602082015250565b6000612b89603d836121e0565b9150612b9482612b2d565b604082019050919050565b60006020820190508181036000830152612bb881612b7c565b9050919050565b7f4552433732313a207472616e736665722063616c6c6572206973206e6f74206f60008201527f776e6572206e6f7220617070726f766564000000000000000000000000000000602082015250565b6000612c1b6031836121e0565b9150612c2682612bbf565b604082019050919050565b60006020820190508181036000830152612c4a81612c0e565b9050919050565b7f4e487b7100000000000000000000000000000000000000000000000000000000600052601160045260246000fd5b6000612c8b82612287565b9150612c9683612287565b9250828203905081811115612cae57612cad612c51565b5b92915050565b7f4e487b7100000000000000000000000000000000000000000000000000000000600052603260045260246000fd5b7f4552433732313a20696e76616c696420746f6b656e2049440000000000000000600082015250565b6000612d196018836121e0565b9150612d2482612ce3565b602082019050919050565b60006020820190508181036000830152612d4881612d0c565b9050919050565b7f4552433732313a2061646472657373207a65726f206973206e6f74206120766160008201527f6c6964206f776e65720000000000000000000000000000000000000000000000602082015250565b6000612dab6029836121e0565b9150612db682612d4f565b604082019050919050565b60006020820190508181036000830152612dda81612d9e565b9050919050565b6000612dec82612287565b9150612df783612287565b9250828201905080821115612e0f57612e0e612c51565b5b92915050565b600081905092915050565b6000612e2b826121d5565b612e358185612e15565b9350612e458185602086016121f1565b80840191505092915050565b6000612e5d8285612e20565b9150612e698284612e20565b91508190509392505050565b7f4552433732313a207472616e736665722066726f6d20696e636f72726563742060008201527f6f776e6572000000000000000000000000000000000000000000000000000000602082015250565b6000612ed16025836121e0565b9150612edc82612e75565b604082019050919050565b60006020820190508181036000830152612f0081612ec4565b9050919050565b7f4552433732313a207472616e7366657220746f20746865207a65726f2061646460008201527f7265737300000000000000000000000000000000000000000000000000000000602082015250565b6000612f636024836121e0565b9150612f6e82612f07565b604082019050919050565b60006020820190508181036000830152612f9281612f56565b9050919050565b7f4552433732313a20617070726f766520746f2063616c6c657200000000000000600082015250565b6000612fcf6019836121e0565b9150612fda82612f99565b602082019050919050565b60006020820190508181036000830152612ffe81612fc2565b9050919050565b7f4552433732313a207472616e7366657220746f206e6f6e20455243373231526560008201527f63656976657220696d706c656d656e7465720000000000000000000000000000602082015250565b60006130616032836121e0565b915061306c82613005565b604082019050919050565b6000602082019050818103600083015261309081613054565b9050919050565b7f4e487b7100000000000000000000000000000000000000000000000000000000600052601260045260246000fd5b600081519050919050565b600082825260208201905092915050565b60006130ed826130c6565b6130f781856130d1565b93506131078185602086016121f1565b6131108161221b565b840191505092915050565b6000608082019050613130600083018761231c565b61313d602083018661231c565b61314a60408301856123b2565b818103606083015261315c81846130e2565b905095945050505050565b60008151905061317681612146565b92915050565b60006020828403121561319257613191612110565b5b60006131a084828501613167565b91505092915050565b7f4552433732313a206d696e7420746f20746865207a65726f2061646472657373600082015250565b60006131df6020836121e0565b91506131ea826131a9565b602082019050919050565b6000602082019050818103600083015261320e816131d2565b9050919050565b7f4552433732313a20746f6b656e20616c7265616479206d696e74656400000000600082015250565b600061324b601c836121e0565b915061325682613215565b602082019050919050565b6000602082019050818103600083015261327a8161323e565b905091905056fea264697066735822122007acf51546724bc4461e6e26f6bac063150595d224bec13f704b97e096157a3864736f6c63430008100033",
  "immutableReferences": {},
  "source": "//SPDX-License-Identifier: MIT\n\npragma solidity ^0.8.16;\n\nimport \"@openzeppelin/contracts/token/ERC721/ERC721.sol\";\n\ncontract Land is ERC721 {\n\n    uint256 public cost = 1 ether;\n    uint256 public maxSupply = 5;\n    uint256 public totalSupply = 0;\n\n    struct Building {\n        string name;\n        address owner;\n        int256 posX;\n        int256 posY;\n        int256 posZ;\n        uint256 sizeX;\n        uint256 sizeY;\n        uint256 sizeZ;\n    }\n\n    Building[] public buildings;\n\n    constructor(string memory _name, string memory _symbol, uint256 _cost) ERC721(_name, _symbol) {\n\n        cost = _cost;\n        buildings.push(\n            Building(\"City Hall\", address(0x0), 0, 0, 0, 10, 10, 10)\n\n        );\n        buildings.push(\n            Building(\"Stadium\", address(0x0), 0, 10, 0, 10, 5, 3)\n\n        );\n        buildings.push(\n            Building(\"University\", address(0x0), 0, -10, 0, 10, 5, 3)\n\n        );\n        buildings.push(\n            Building(\"Shopping Plaze 1\", address(0x0), 10, 0, 0, 5, 25, 5)\n\n\n        );\n        buildings.push(\n            Building(\"Shopping Plaza 2\", address(0x0), -10, 0, 0, 5, 25, 5)\n\n        );\n\n    }\n\n    function mint(uint256 _id) public payable {\n        uint256 supply = totalSupply;\n        require(supply <= maxSupply);\n        require(buildings[_id - 1].owner == address(0x0));\n        require(msg.value >= 1 ether);\n\n        buildings[_id - 1].owner = msg.sender;\n        totalSupply = totalSupply + 1;\n        _safeMint(msg.sender, _id);\n    } \n\n    function transferFrom(\n        address from,\n        address to,\n        uint256 tokenId\n    ) public override {\n        require(\n            _isApprovedOrOwner(_msgSender(), tokenId),\n            \"ERC721: transfer caller is not owner nor approved\"\n        );\n\n        buildings[tokenId - 1].owner = to;\n        _transfer(from, to, tokenId);\n    }\n\n    function safeTransferFrom(\n        address from,\n        address to,\n        uint256 tokenId,\n        bytes memory _data\n    ) public override {\n        require(\n         _isApprovedOrOwner(_msgSender(), tokenId),\n         \"ERC721: transfer caller is not owner nor approved\"\n         );\n          //update building ownership\n          buildings[tokenId - 1].owner = to;\n          _safeTransfer(from, to, tokenId, _data);\n\n    }\n\n    function getBuildings() public view returns(Building[] memory) {\n        return buildings;\n    }\n\n    function getBuilding(uint256 _id) public view returns (Building memory) {\n        return buildings[_id - 1];\n    }\n\n   \n\n\n\n}",
  "sourcePath": "/Users/venugopalmiriyala/Desktop/metaverse/src/contracts/Land.sol",
  "compiler": {
    "name": "solc",
    "version": "0.8.16+commit.07a7930e.Emscripten.clang"
  },
  "schemaVersion": "3.4.11",
  "updatedAt": "2022-12-22T08:54:50.929Z",
  "networkType": "ethereum",
  "devdoc": {
    "kind": "dev",
    "methods": {
      "approve(address,uint256)": {
        "details": "See {IERC721-approve}."
      },
      "balanceOf(address)": {
        "details": "See {IERC721-balanceOf}."
      },
      "getApproved(uint256)": {
        "details": "See {IERC721-getApproved}."
      },
      "isApprovedForAll(address,address)": {
        "details": "See {IERC721-isApprovedForAll}."
      },
      "name()": {
        "details": "See {IERC721Metadata-name}."
      },
      "ownerOf(uint256)": {
        "details": "See {IERC721-ownerOf}."
      },
      "safeTransferFrom(address,address,uint256)": {
        "details": "See {IERC721-safeTransferFrom}."
      },
      "setApprovalForAll(address,bool)": {
        "details": "See {IERC721-setApprovalForAll}."
      },
      "supportsInterface(bytes4)": {
        "details": "See {IERC165-supportsInterface}."
      },
      "symbol()": {
        "details": "See {IERC721Metadata-symbol}."
      },
      "tokenURI(uint256)": {
        "details": "See {IERC721Metadata-tokenURI}."
      },
      "transferFrom(address,address,uint256)": {
        "details": "See {IERC721-transferFrom}."
      }
    },
    "version": 1
  },
  "userdoc": {
    "kind": "user",
    "methods": {},
    "version": 1
  }
}